{
  "contractName": "MyCoin",
  "abi": [
    {
      "inputs": [],
      "stateMutability": "nonpayable",
      "type": "constructor"
    },
    {
      "anonymous": false,
      "inputs": [
        {
          "indexed": true,
          "internalType": "address",
          "name": "owner",
          "type": "address"
        },
        {
          "indexed": true,
          "internalType": "address",
          "name": "spender",
          "type": "address"
        },
        {
          "indexed": false,
          "internalType": "uint256",
          "name": "value",
          "type": "uint256"
        }
      ],
      "name": "Approval",
      "type": "event"
    },
    {
      "anonymous": false,
      "inputs": [
        {
          "indexed": true,
          "internalType": "address",
          "name": "from",
          "type": "address"
        },
        {
          "indexed": true,
          "internalType": "address",
          "name": "to",
          "type": "address"
        },
        {
          "indexed": false,
          "internalType": "uint256",
          "name": "value",
          "type": "uint256"
        }
      ],
      "name": "Transfer",
      "type": "event"
    },
    {
      "inputs": [
        {
          "internalType": "address",
          "name": "owner",
          "type": "address"
        },
        {
          "internalType": "address",
          "name": "spender",
          "type": "address"
        }
      ],
      "name": "allowance",
      "outputs": [
        {
          "internalType": "uint256",
          "name": "",
          "type": "uint256"
        }
      ],
      "stateMutability": "view",
      "type": "function",
      "constant": true
    },
    {
      "inputs": [
        {
          "internalType": "address",
          "name": "spender",
          "type": "address"
        },
        {
          "internalType": "uint256",
          "name": "amount",
          "type": "uint256"
        }
      ],
      "name": "approve",
      "outputs": [
        {
          "internalType": "bool",
          "name": "",
          "type": "bool"
        }
      ],
      "stateMutability": "nonpayable",
      "type": "function"
    },
    {
      "inputs": [
        {
          "internalType": "address",
          "name": "account",
          "type": "address"
        }
      ],
      "name": "balanceOf",
      "outputs": [
        {
          "internalType": "uint256",
          "name": "",
          "type": "uint256"
        }
      ],
      "stateMutability": "view",
      "type": "function",
      "constant": true
    },
    {
      "inputs": [],
      "name": "decimals",
      "outputs": [
        {
          "internalType": "uint8",
          "name": "",
          "type": "uint8"
        }
      ],
      "stateMutability": "view",
      "type": "function",
      "constant": true
    },
    {
      "inputs": [
        {
          "internalType": "address",
          "name": "spender",
          "type": "address"
        },
        {
          "internalType": "uint256",
          "name": "subtractedValue",
          "type": "uint256"
        }
      ],
      "name": "decreaseAllowance",
      "outputs": [
        {
          "internalType": "bool",
          "name": "",
          "type": "bool"
        }
      ],
      "stateMutability": "nonpayable",
      "type": "function"
    },
    {
      "inputs": [
        {
          "internalType": "address",
          "name": "spender",
          "type": "address"
        },
        {
          "internalType": "uint256",
          "name": "addedValue",
          "type": "uint256"
        }
      ],
      "name": "increaseAllowance",
      "outputs": [
        {
          "internalType": "bool",
          "name": "",
          "type": "bool"
        }
      ],
      "stateMutability": "nonpayable",
      "type": "function"
    },
    {
      "inputs": [],
      "name": "myName",
      "outputs": [
        {
          "internalType": "string",
          "name": "",
          "type": "string"
        }
      ],
      "stateMutability": "view",
      "type": "function",
      "constant": true
    },
    {
      "inputs": [],
      "name": "mySymbol",
      "outputs": [
        {
          "internalType": "string",
          "name": "",
          "type": "string"
        }
      ],
      "stateMutability": "view",
      "type": "function",
      "constant": true
    },
    {
      "inputs": [],
      "name": "name",
      "outputs": [
        {
          "internalType": "string",
          "name": "",
          "type": "string"
        }
      ],
      "stateMutability": "view",
      "type": "function",
      "constant": true
    },
    {
      "inputs": [],
      "name": "symbol",
      "outputs": [
        {
          "internalType": "string",
          "name": "",
          "type": "string"
        }
      ],
      "stateMutability": "view",
      "type": "function",
      "constant": true
    },
    {
      "inputs": [],
      "name": "totalSupply",
      "outputs": [
        {
          "internalType": "uint256",
          "name": "",
          "type": "uint256"
        }
      ],
      "stateMutability": "view",
      "type": "function",
      "constant": true
    },
    {
      "inputs": [
        {
          "internalType": "address",
          "name": "to",
          "type": "address"
        },
        {
          "internalType": "uint256",
          "name": "amount",
          "type": "uint256"
        }
      ],
      "name": "transfer",
      "outputs": [
        {
          "internalType": "bool",
          "name": "",
          "type": "bool"
        }
      ],
      "stateMutability": "nonpayable",
      "type": "function"
    },
    {
      "inputs": [
        {
          "internalType": "address",
          "name": "from",
          "type": "address"
        },
        {
          "internalType": "address",
          "name": "to",
          "type": "address"
        },
        {
          "internalType": "uint256",
          "name": "amount",
          "type": "uint256"
        }
      ],
      "name": "transferFrom",
      "outputs": [
        {
          "internalType": "bool",
          "name": "",
          "type": "bool"
        }
      ],
      "stateMutability": "nonpayable",
      "type": "function"
    }
  ],
  "bytecode": "0x60806040523480156200001157600080fd5b506040518060400160405280600c81526020017f48637a4552433230546f6b6500000000000000000000000000000000000000008152506040518060400160405280600381526020017f48435a000000000000000000000000000000000000000000000000000000000081525081600390816200008f9190620004d8565b508060049081620000a19190620004d8565b505050620000c93369d3c21bcecceda1000000620000cf640100000000026401000000009004565b620006da565b600073ffffffffffffffffffffffffffffffffffffffff168273ffffffffffffffffffffffffffffffffffffffff160362000141576040517f08c379a0000000000000000000000000000000000000000000000000000000008152600401620001389062000620565b60405180910390fd5b6200015e600083836200024e640100000000026401000000009004565b806002600082825462000172919062000671565b92505081905550806000808473ffffffffffffffffffffffffffffffffffffffff1673ffffffffffffffffffffffffffffffffffffffff168152602001908152602001600020600082825401925050819055508173ffffffffffffffffffffffffffffffffffffffff16600073ffffffffffffffffffffffffffffffffffffffff167fddf252ad1be2c89b69c2b068fc378daa952ba7f163c4a11628f55a4df523b3ef83604051620002259190620006bd565b60405180910390a36200024a6000838362000253640100000000026401000000009004565b5050565b505050565b505050565b600081519050919050565b7f4e487b7100000000000000000000000000000000000000000000000000000000600052604160045260246000fd5b7f4e487b7100000000000000000000000000000000000000000000000000000000600052602260045260246000fd5b60006002820490506001821680620002da57607f821691505b602082108103620002f057620002ef62000292565b5b50919050565b60008190508160005260206000209050919050565b60006020601f8301049050919050565b60008160020a8302905092915050565b6000600883026200035d7fffffffffffffffffffffffffffffffffffffffffffffffffffffffffffffffff826200031b565b6200036986836200031b565b95508019841693508086168417925050509392505050565b6000819050919050565b6000819050919050565b6000620003b6620003b0620003aa8462000381565b6200038b565b62000381565b9050919050565b6000819050919050565b620003d28362000395565b620003ea620003e182620003bd565b8484546200032b565b825550505050565b600090565b62000401620003f2565b6200040e818484620003c7565b505050565b5b8181101562000436576200042a600082620003f7565b60018101905062000414565b5050565b601f82111562000485576200044f81620002f6565b6200045a846200030b565b810160208510156200046a578190505b6200048262000479856200030b565b83018262000413565b50505b505050565b60008160020a8304905092915050565b6000620004ad600019846008026200048a565b1980831691505092915050565b6000620004c883836200049a565b9150826002028217905092915050565b620004e38262000258565b67ffffffffffffffff811115620004ff57620004fe62000263565b5b6200050b8254620002c1565b620005188282856200043a565b600060209050601f8311600181146200055057600084156200053b578287015190505b620005478582620004ba565b865550620005b7565b601f1984166200056086620002f6565b60005b828110156200058a5784890151825560018201915060208501945060208101905062000563565b86831015620005aa5784890151620005a6601f8916826200049a565b8355505b6001600288020188555050505b505050505050565b600082825260208201905092915050565b7f45524332303a206d696e7420746f20746865207a65726f206164647265737300600082015250565b600062000608601f83620005bf565b91506200061582620005d0565b602082019050919050565b600060208201905081810360008301526200063b81620005f9565b9050919050565b7f4e487b7100000000000000000000000000000000000000000000000000000000600052601160045260246000fd5b60006200067e8262000381565b91506200068b8362000381565b9250828201905080821115620006a657620006a562000642565b5b92915050565b620006b78162000381565b82525050565b6000602082019050620006d46000830184620006ac565b92915050565b61132080620006ea6000396000f3fe608060405234801561001057600080fd5b50600436106100ec576000357c01000000000000000000000000000000000000000000000000000000009004806370a08231116100a9578063a9059cbb11610083578063a9059cbb14610259578063d57ed54c14610289578063dd62ed3e146102a7578063fae2dd4b146102d7576100ec565b806370a08231146101db57806395d89b411461020b578063a457c2d714610229576100ec565b806306fdde03146100f1578063095ea7b31461010f57806318160ddd1461013f57806323b872dd1461015d578063313ce5671461018d57806339509351146101ab575b600080fd5b6100f96102f5565b6040516101069190610bfd565b60405180910390f35b61012960048036038101906101249190610cb8565b610387565b6040516101369190610d13565b60405180910390f35b6101476103aa565b6040516101549190610d3d565b60405180910390f35b61017760048036038101906101729190610d58565b6103b4565b6040516101849190610d13565b60405180910390f35b6101956103e3565b6040516101a29190610dc7565b60405180910390f35b6101c560048036038101906101c09190610cb8565b6103ec565b6040516101d29190610d13565b60405180910390f35b6101f560048036038101906101f09190610de2565b610423565b6040516102029190610d3d565b60405180910390f35b61021361046b565b6040516102209190610bfd565b60405180910390f35b610243600480360381019061023e9190610cb8565b6104fd565b6040516102509190610d13565b60405180910390f35b610273600480360381019061026e9190610cb8565b610574565b6040516102809190610d13565b60405180910390f35b610291610597565b60405161029e9190610bfd565b60405180910390f35b6102c160048036038101906102bc9190610e0f565b6105d0565b6040516102ce9190610d3d565b60405180910390f35b6102df610657565b6040516102ec9190610bfd565b60405180910390f35b60606003805461030490610e7e565b80601f016020809104026020016040519081016040528092919081815260200182805461033090610e7e565b801561037d5780601f106103525761010080835404028352916020019161037d565b820191906000526020600020905b81548152906001019060200180831161036057829003601f168201915b5050505050905090565b600080610392610690565b905061039f818585610698565b600191505092915050565b6000600254905090565b6000806103bf610690565b90506103cc858285610861565b6103d78585856108ed565b60019150509392505050565b60006012905090565b6000806103f7610690565b905061041881858561040985896105d0565b6104139190610ede565b610698565b600191505092915050565b60008060008373ffffffffffffffffffffffffffffffffffffffff1673ffffffffffffffffffffffffffffffffffffffff168152602001908152602001600020549050919050565b60606004805461047a90610e7e565b80601f01602080910402602001604051908101604052809291908181526020018280546104a690610e7e565b80156104f35780601f106104c8576101008083540402835291602001916104f3565b820191906000526020600020905b8154815290600101906020018083116104d657829003601f168201915b5050505050905090565b600080610508610690565b9050600061051682866105d0565b90508381101561055b576040517f08c379a000000000000000000000000000000000000000000000000000000000815260040161055290610f84565b60405180910390fd5b6105688286868403610698565b60019250505092915050565b60008061057f610690565b905061058c8185856108ed565b600191505092915050565b6040518060400160405280600381526020017f48435a000000000000000000000000000000000000000000000000000000000081525081565b6000600160008473ffffffffffffffffffffffffffffffffffffffff1673ffffffffffffffffffffffffffffffffffffffff16815260200190815260200160002060008373ffffffffffffffffffffffffffffffffffffffff1673ffffffffffffffffffffffffffffffffffffffff16815260200190815260200160002054905092915050565b6040518060400160405280600c81526020017f48637a4552433230546f6b65000000000000000000000000000000000000000081525081565b600033905090565b600073ffffffffffffffffffffffffffffffffffffffff168373ffffffffffffffffffffffffffffffffffffffff1603610707576040517f08c379a00000000000000000000000000000000000000000000000000000000081526004016106fe90611016565b60405180910390fd5b600073ffffffffffffffffffffffffffffffffffffffff168273ffffffffffffffffffffffffffffffffffffffff1603610776576040517f08c379a000000000000000000000000000000000000000000000000000000000815260040161076d906110a8565b60405180910390fd5b80600160008573ffffffffffffffffffffffffffffffffffffffff1673ffffffffffffffffffffffffffffffffffffffff16815260200190815260200160002060008473ffffffffffffffffffffffffffffffffffffffff1673ffffffffffffffffffffffffffffffffffffffff168152602001908152602001600020819055508173ffffffffffffffffffffffffffffffffffffffff168373ffffffffffffffffffffffffffffffffffffffff167f8c5be1e5ebec7d5bd14f71427d1e84f3dd0314c0f7b2291e5b200ac8c7c3b925836040516108549190610d3d565b60405180910390a3505050565b600061086d84846105d0565b90507fffffffffffffffffffffffffffffffffffffffffffffffffffffffffffffffff81146108e757818110156108d9576040517f08c379a00000000000000000000000000000000000000000000000000000000081526004016108d090611114565b60405180910390fd5b6108e68484848403610698565b5b50505050565b600073ffffffffffffffffffffffffffffffffffffffff168373ffffffffffffffffffffffffffffffffffffffff160361095c576040517f08c379a0000000000000000000000000000000000000000000000000000000008152600401610953906111a6565b60405180910390fd5b600073ffffffffffffffffffffffffffffffffffffffff168273ffffffffffffffffffffffffffffffffffffffff16036109cb576040517f08c379a00000000000000000000000000000000000000000000000000000000081526004016109c290611238565b60405180910390fd5b6109d6838383610b63565b60008060008573ffffffffffffffffffffffffffffffffffffffff1673ffffffffffffffffffffffffffffffffffffffff16815260200190815260200160002054905081811015610a5c576040517f08c379a0000000000000000000000000000000000000000000000000000000008152600401610a53906112ca565b60405180910390fd5b8181036000808673ffffffffffffffffffffffffffffffffffffffff1673ffffffffffffffffffffffffffffffffffffffff16815260200190815260200160002081905550816000808573ffffffffffffffffffffffffffffffffffffffff1673ffffffffffffffffffffffffffffffffffffffff168152602001908152602001600020600082825401925050819055508273ffffffffffffffffffffffffffffffffffffffff168473ffffffffffffffffffffffffffffffffffffffff167fddf252ad1be2c89b69c2b068fc378daa952ba7f163c4a11628f55a4df523b3ef84604051610b4a9190610d3d565b60405180910390a3610b5d848484610b68565b50505050565b505050565b505050565b600081519050919050565b600082825260208201905092915050565b60005b83811015610ba7578082015181840152602081019050610b8c565b60008484015250505050565b6000601f19601f8301169050919050565b6000610bcf82610b6d565b610bd98185610b78565b9350610be9818560208601610b89565b610bf281610bb3565b840191505092915050565b60006020820190508181036000830152610c178184610bc4565b905092915050565b600080fd5b600073ffffffffffffffffffffffffffffffffffffffff82169050919050565b6000610c4f82610c24565b9050919050565b610c5f81610c44565b8114610c6a57600080fd5b50565b600081359050610c7c81610c56565b92915050565b6000819050919050565b610c9581610c82565b8114610ca057600080fd5b50565b600081359050610cb281610c8c565b92915050565b60008060408385031215610ccf57610cce610c1f565b5b6000610cdd85828601610c6d565b9250506020610cee85828601610ca3565b9150509250929050565b60008115159050919050565b610d0d81610cf8565b82525050565b6000602082019050610d286000830184610d04565b92915050565b610d3781610c82565b82525050565b6000602082019050610d526000830184610d2e565b92915050565b600080600060608486031215610d7157610d70610c1f565b5b6000610d7f86828701610c6d565b9350506020610d9086828701610c6d565b9250506040610da186828701610ca3565b9150509250925092565b600060ff82169050919050565b610dc181610dab565b82525050565b6000602082019050610ddc6000830184610db8565b92915050565b600060208284031215610df857610df7610c1f565b5b6000610e0684828501610c6d565b91505092915050565b60008060408385031215610e2657610e25610c1f565b5b6000610e3485828601610c6d565b9250506020610e4585828601610c6d565b9150509250929050565b7f4e487b7100000000000000000000000000000000000000000000000000000000600052602260045260246000fd5b60006002820490506001821680610e9657607f821691505b602082108103610ea957610ea8610e4f565b5b50919050565b7f4e487b7100000000000000000000000000000000000000000000000000000000600052601160045260246000fd5b6000610ee982610c82565b9150610ef483610c82565b9250828201905080821115610f0c57610f0b610eaf565b5b92915050565b7f45524332303a2064656372656173656420616c6c6f77616e63652062656c6f7760008201527f207a65726f000000000000000000000000000000000000000000000000000000602082015250565b6000610f6e602583610b78565b9150610f7982610f12565b604082019050919050565b60006020820190508181036000830152610f9d81610f61565b9050919050565b7f45524332303a20617070726f76652066726f6d20746865207a65726f2061646460008201527f7265737300000000000000000000000000000000000000000000000000000000602082015250565b6000611000602483610b78565b915061100b82610fa4565b604082019050919050565b6000602082019050818103600083015261102f81610ff3565b9050919050565b7f45524332303a20617070726f766520746f20746865207a65726f20616464726560008201527f7373000000000000000000000000000000000000000000000000000000000000602082015250565b6000611092602283610b78565b915061109d82611036565b604082019050919050565b600060208201905081810360008301526110c181611085565b9050919050565b7f45524332303a20696e73756666696369656e7420616c6c6f77616e6365000000600082015250565b60006110fe601d83610b78565b9150611109826110c8565b602082019050919050565b6000602082019050818103600083015261112d816110f1565b9050919050565b7f45524332303a207472616e736665722066726f6d20746865207a65726f20616460008201527f6472657373000000000000000000000000000000000000000000000000000000602082015250565b6000611190602583610b78565b915061119b82611134565b604082019050919050565b600060208201905081810360008301526111bf81611183565b9050919050565b7f45524332303a207472616e7366657220746f20746865207a65726f206164647260008201527f6573730000000000000000000000000000000000000000000000000000000000602082015250565b6000611222602383610b78565b915061122d826111c6565b604082019050919050565b6000602082019050818103600083015261125181611215565b9050919050565b7f45524332303a207472616e7366657220616d6f756e742065786365656473206260008201527f616c616e63650000000000000000000000000000000000000000000000000000602082015250565b60006112b4602683610b78565b91506112bf82611258565b604082019050919050565b600060208201905081810360008301526112e3816112a7565b905091905056fea2646970667358221220bdb451cfa86f33e61d9e1640b16d8e1f6373e66f0ebb485199210948b67fc97f64736f6c63430008150033",
  "immutableReferences": {},
  "source": "// SPDX-License-Identifier: MIT\r\npragma solidity >=0.7.0 <0.9.0;\r\nimport \"@openzeppelin/contracts/token/ERC20/ERC20.sol\";\r\n\r\ncontract MyCoin is ERC20 {\r\n  string public constant myName=\"HczERC20Toke\";\r\n  string public constant mySymbol = \"HCZ\";\r\n\r\n  constructor() ERC20(myName,mySymbol) {\r\n    _mint(msg.sender,1000000 * 10 ** 18);\r\n  }\r\n\r\n}\r\n\r\n",
  "sourcePath": "D:\\hcz\\web3\\hcz-truffle-course\\contracts\\MyCoin.sol",
  "compiler": {
    "name": "solc",
    "version": "0.8.21+commit.d9974bed.Emscripten.clang"
  },
  "schemaVersion": "3.4.16",
  "updatedAt": "2025-06-03T16:36:46.770Z",
  "networkType": "ethereum",
  "devdoc": {
    "events": {
      "Approval(address,address,uint256)": {
        "details": "Emitted when the allowance of a `spender` for an `owner` is set by a call to {approve}. `value` is the new allowance."
      },
      "Transfer(address,address,uint256)": {
        "details": "Emitted when `value` tokens are moved from one account (`from`) to another (`to`). Note that `value` may be zero."
      }
    },
    "kind": "dev",
    "methods": {
      "allowance(address,address)": {
        "details": "See {IERC20-allowance}."
      },
      "approve(address,uint256)": {
        "details": "See {IERC20-approve}. NOTE: If `amount` is the maximum `uint256`, the allowance is not updated on `transferFrom`. This is semantically equivalent to an infinite approval. Requirements: - `spender` cannot be the zero address."
      },
      "balanceOf(address)": {
        "details": "See {IERC20-balanceOf}."
      },
      "decimals()": {
        "details": "Returns the number of decimals used to get its user representation. For example, if `decimals` equals `2`, a balance of `505` tokens should be displayed to a user as `5.05` (`505 / 10 ** 2`). Tokens usually opt for a value of 18, imitating the relationship between Ether and Wei. This is the default value returned by this function, unless it's overridden. NOTE: This information is only used for _display_ purposes: it in no way affects any of the arithmetic of the contract, including {IERC20-balanceOf} and {IERC20-transfer}."
      },
      "decreaseAllowance(address,uint256)": {
        "details": "Atomically decreases the allowance granted to `spender` by the caller. This is an alternative to {approve} that can be used as a mitigation for problems described in {IERC20-approve}. Emits an {Approval} event indicating the updated allowance. Requirements: - `spender` cannot be the zero address. - `spender` must have allowance for the caller of at least `subtractedValue`."
      },
      "increaseAllowance(address,uint256)": {
        "details": "Atomically increases the allowance granted to `spender` by the caller. This is an alternative to {approve} that can be used as a mitigation for problems described in {IERC20-approve}. Emits an {Approval} event indicating the updated allowance. Requirements: - `spender` cannot be the zero address."
      },
      "name()": {
        "details": "Returns the name of the token."
      },
      "symbol()": {
        "details": "Returns the symbol of the token, usually a shorter version of the name."
      },
      "totalSupply()": {
        "details": "See {IERC20-totalSupply}."
      },
      "transfer(address,uint256)": {
        "details": "See {IERC20-transfer}. Requirements: - `to` cannot be the zero address. - the caller must have a balance of at least `amount`."
      },
      "transferFrom(address,address,uint256)": {
        "details": "See {IERC20-transferFrom}. Emits an {Approval} event indicating the updated allowance. This is not required by the EIP. See the note at the beginning of {ERC20}. NOTE: Does not update the allowance if the current allowance is the maximum `uint256`. Requirements: - `from` and `to` cannot be the zero address. - `from` must have a balance of at least `amount`. - the caller must have allowance for ``from``'s tokens of at least `amount`."
      }
    },
    "version": 1
  },
  "userdoc": {
    "kind": "user",
    "methods": {},
    "version": 1
  }
}